:020000040800F2
:100000003849002099010008F33D00085B380008DA
:10001000F13D00089D100008DB62000800000000B0
:1000200000000000000000000000000001010008C6
:100030005F13000800000000450100089946000811
:10004000B3010008B3010008B3010008B3010008C0
:10005000B3010008B3010008B3010008B3010008B0
:10006000B3010008B3010008B3010008B3010008A0
:10007000B3010008B3010008B3010008B301000890
:1000800029130008B3010008B3010008B3010008F8
:1000900065620008B3010008B3010008611300089D
:1000A000B3010008B3010008B3010008B301000860
:1000B0003D470008B301000849470008B3010008A4
:1000C000B3010008B3010008B3010008B301000840
:1000D000B3010008B3010008B3010008B301000830
:1000E000B3010008B3010008B3010008DFF80CD029
:1000F00000F06EFC00480047256C000838490020DD
:10010000224B19680868B0E8F00F80F30988BFF344
:100110006F8F4FF0000080F311884EF00D0E704786
:100120000000000006480068006880F3088862B696
:1001300061B6BFF34F8FBFF36F8F00DF00BF00BF0B
:1001400008ED00E0EFF30980BFF36F8F0F4B1A68E3
:1001500020E9F00F106008B54FF0500080F31188CF
:10016000BFF34F8FBFF36F8F07F0D8F94FF0000048
:1001700080F31188BDE8084019680868B0E8F00FFE
:1001800080F30988BFF36F8F704700BF70000020B5
:10019000EFF3058070470000064880470648004797
:1001A000FEE7FEE7FEE7FEE7FEE7FEE7FEE7FEE727
:1001B000FEE7FEE73B470008ED000008202A04DBCD
:1001C000203A21FA02F00021704721FA02F3D040D0
:1001D000C2F12002914008431946704740EA0103EA
:1001E0009B0703D009E008C9121F08C0042AFAD2ED
:1001F00003E011F8013B00F8013B521EF9D27047B1
:10020000D2B201E000F8012B491EFBD27047002258
:10021000F6E710B513460A4604461946FFF7F0FF05
:10022000204610BDF0B480EA0102D40F4200B2EBC8
:10023000410F02D20246084611464A0042D0C30D81
:10024000DDB2C1F3C752AD1A202D35DAC1F3160164
:1002500041F4000204B15242C5F1200602FA06F14F
:100260002A411044B3EBD05F23D0C4B1012DA0EBE1
:10027000C35009DCF0BC4FF0004202EAC352DBB2CB
:1002800000F5000000F0D2B9400000F1807000EBF2
:10029000C350A0F1807040EAD170490009E04908DC
:1002A00041EAC071A0EBC35000F50000400800EB2C
:1002B000C350F0BC00F0B1B96142012202EB410130
:1002C000001BF6E7F0BC704781F00041AAE780F020
:1002D0000040A7E780EA010210B502F000434000A9
:1002E00022D04A001FD0010E01EB1261C0F356006C
:1002F000C2F3560240F4000042F40002A0FB0220C8
:1003000000047F39140400D0401C50EA124001D48C
:100310004000491EC2B20C0604EBD010401C40083D
:10032000802A02D003E0002010BD20F00100002947
:1003300000DA0020184310BD30B480EA010202F058
:10034000004530F0004221F0004013D090B1C30DC1
:10035000D40DC2F31601C0F31600E41A41F40001F3
:1003600040F400027D34914201D3641C00E0490056
:10037000002C02DA30BC002070474FF4000000234C
:10038000914201D3891A034340084FEA4101F7D152
:1003900051B1914202D14FF0004105E002D24FF03D
:1003A000010101E06FF0010103EBC450284430BCAF
:1003B00000F033B9420005D0C0F3C7525242914217
:1003C00001DC0020704700EBC15070472DE9FE4F63
:1003D00081EA030404F0004421F0004100944FF04E
:1003E000000B23F0004350EA01045ED052EA0304FC
:1003F0005BD0C3F30A54C1F30A552C44A4F2F3347E
:100400000194A0FB0254C1F3130141F48011C3F322
:10041000130343F4801301FB024400FB034E840AE0
:10042000970A44EA815447EA8357A4FB0768029578
:100430008D0A05FB07854FEA932C04FB0C54270516
:10044000029D4FEA065847EA1637B5EB08056EEBF2
:10045000070C870E920E47EA811742EA8312A7FB28
:100460000201B6EB0B0164EB00042B0D43EA0C33E5
:100470005E1844EB1C50DA465146E7FB0201C5F317
:1004800013044FEA0B3343EA14534FEA0432019C3E
:1004900043EA0603A4F10C040294009CCDE900B4E5
:1004A00000F001F903B0BDE8F08F00200146F9E744
:1004B00096230022114600F0B9B80EB540F2334140
:1004C00002910021CDE900110A460B4600F0EBF83D
:1004D00003B000BD20F00040C10DC0F3160040F491
:1004E00000007F2901DA00207047962903DCC1F162
:1004F0009601C8407047963988407047C1F30A5248
:1005000010B5C1F3130140F2FF3341F480119A4258
:1005100001DA002010BD40F233439A42A2F2334286
:1005200003DC5242FFF74AFE10BD904010BD00F0C0
:10053000004230F000400AD0C10D01F56071C0F3F7
:10054000160042EA0151C2084007114370470020DB
:100550000146704701F0004330B421F0004150EAF9
:10056000010206D00A0DA2F56072C1F31301002A40
:1005700002DC30BC00207047440F44EAC104C100D3
:10058000E01830BC00EBC25000F047B830B50B4665
:10059000014600202022012409E021FA02F59D42B3
:1005A00005D303FA02F5491B04FA02F52844151E87
:1005B000A2F10102F1DC30BD2DE9F05F054600201B
:1005C00092469B4688460646814640241BE02846C4
:1005D000414647462246FFF7F1FD53465A46C01AA8
:1005E000914110D311461846224600F003FA2D1A05
:1005F00067EB01084F4622460120002100F0FAF97E
:1006000017EB00094E41201EA4F10104DFDC48462F
:1006100031462A464346BDE8F09F0029A8BF7047EF
:10062000401C490008BF20F00100704710B4B0FA28
:1006300080FC00FA0CF050EA010404BF10BC7047C3
:1006400049B1CCF1200421FA04F411FA0CF118BFDD
:10065000012121430843A3EB0C01CB1D4FEA0061AC
:100660004FEA102042BF002010BC704700EBC3507F
:1006700010440029A4BF10BC7047401C490008BFAB
:1006800020F0010010BC704710B5141E73F1000477
:1006900008DA401C41F1000192185B411A4301D174
:1006A00020F0010010BD2DE9F04D92469B4611B19E
:1006B000B1FA81F202E0B0FA80F22032904600F006
:1006C00099F904460F4640EA0A0041EA0B015346F5
:1006D0005A46084313D0114653EA010019D0C8F115
:1006E00040025046FFF76AFD05460E465046594601
:1006F000424600F07FF9084305D0012004E020467F
:100700003946BDE8F08D0020054346EAE0762C43EB
:1007100037430A986305E40AA0EB08000022FD0AAB
:1007200044EA47540A3002D500200146E9E70105B2
:1007300010196941DDE9084500196941BDE8F04D2E
:10074000A2E72DE9FE4F804681EA0300C00F0C4668
:10075000009021F0004123F00045B8EB0200A941D0
:1007600005D24046214690461C460B46024623F0E1
:100770000040104347D0270DC7F30A00C3F30A51C6
:100780000290401A019040286BDAC3F3130040F442
:10079000801B0098924620B10023D2EB030A63EB42
:1007A0000B0B01985946C0F14002504600F022F967
:1007B00006460D4650465946019A00F02AF910EBBC
:1007C00008006141002487EA115284EAE7731A4362
:1007D00040D0009A62B3019A012A4FEA075215DC11
:1007E000001B61EB02014FF0004202EA0752CDE923
:1007F0000042001C41F5801132462B46FFF753FFA3
:1008000003B0BDE8F08F40462146F9E7001B61EBDD
:100810000201001C41F5801300185B412018A2F56D
:10082000001747EB030140EAD570B6196D4111E09E
:100830006D084FEA360645EAC0754FEA0752001BBD
:1008400061EB0201001C41F5801149084FEA3000BC
:100850000019514132462B4603B0BDE8F04FFFF777
:1008600013BF0098012240000023D0EB020263EB8B
:10087000E073009821464FEAE074B8EB000061EBAA
:100880000401E9E783F000435BE781F0004158E7AA
:100890002DE9F04D81EA030404F0004B21F00045FE
:1008A00014464FF0000A23F0004150EA050220D020
:1008B00054EA01021DD0C5F30A570246C5F31303DB
:1008C000C1F31300C1F30A5640F4801543F48013BA
:1008D000A7EB0608101BD64608F2FD3873EB05009F
:1008E00002D308F1010801E092185B41B8F1000F52
:1008F00003DA00200146BDE8F08D00204FF480119E
:10090000064684460EE0171B73EB050705D3121B42
:1009100063EB050306434CEA010C49084FEA30003B
:1009200092185B4150EA0107EDD152EA030012D060
:1009300082EA040083EA0501084305D0101BAB419D
:1009400006D20122002306E000224FF0004302E01D
:100950006FF0010253101AEB06004CEB085110EB3C
:100960000A0041EB0B01BDE8F04DFFF78DBEC1F36E
:100970000A52C1F3130140F2FF3341F480119A424D
:1009800002DA00200146704740F233439A42A2F255
:10099000334202DC5242FFF711BC00F02BB80000DA
:1009A00030B5041E71F1000404DB4FF000444042F6
:1009B00064EB0101141E73F1000405DB1C464FF0CB
:1009C0000043524263EB0403994208BF904230BD9A
:1009D000064C074D06E0E06840F0010394E807008C
:1009E00098471034AC42F6D3FFF784FBCC7900086B
:1009F000EC790008202A04DB203A00FA02F10020FA
:100A000070479140C2F1200320FA03F3194390404C
:100A10007047202A06DBCB17203A41FA02F043EA5E
:100A2000E07306E041FA02F3D040C2F120029140A7
:100A300008431946704770B58C1810F8015B15F023
:100A4000070301D110F8013B2A1106D110F8012B40
:100A500003E010F8016B01F8016B5B1EF9D12B0765
:100A600005D40023521E0DD401F8013BFAE710F81B
:100A7000013BCB1A921C03E013F8015B01F8015B08
:100A8000521EF9D5A142D8D3002070BD10B500F098
:100A90000FF8FFF712FD044A044BFFF797FCBDE87F
:100AA0001040FFF757BD0000FA7E6ABC7493283FE0
:100AB00008B5032801D9002008BD0021009140F2AB
:100AC000E31130B1012807D0022808D003280BD148
:100AD00008E044F2E31107E045F2E31104E046F2D6
:100AE000E31101E047F2E3110846802242EA1021B7
:100AF0008DF800108DF8010002226946012000F0F7
:100B000038F80A2000F08EFD02226946002000F02D
:100B100009F8BDF8000040BA00B2002800DA002051
:100B200080B208BD2DE9F04115460E460746002467
:100B300002F064FF0021482002F014FF384602F062
:100B400047FF02F05BFF0121482002F00BFF6D1E02
:100B500005E0002002F0E6FE3055641CE4B2AC4231
:100B6000F7DB02F05FFF012002F0DCFE3055BDE84C
:100B7000F08170B515460E46044602F03FFF002195
:100B8000482002F0EFFE204602F022FF002404E09D
:100B9000305D02F01DFF641C64B2AC42F8DBBDE8BE
:100BA000704002F03FBF00002DE9F04701F030FE39
:100BB0001D49496811F4605F33D0022141431B484D
:100BC0001B4DB1FBF0F02A68002191622A68411E9A
:100BD00089B2D162296801264E61FFF76EFCDFF809
:100BE0005480894604464246134BFFF7EFFBFFF75C
:100BF00085FC124F401E7870204649464246104BF5
:100C0000FFF7E4FBFFF77AFC401EB870FE7001228C
:100C10000021286803F0E4FDBDE8F047012000F062
:100C200001BD0121CAE700000010024000350C00A0
:100C3000A8040020EC51B81E85EBE13F0400002021
:100C400085EBD13F70B5052807D30524B0FBF4F43C
:100C5000644204EB8404204480B2124C26784FF4A2
:100C60008075761CB5FBF6F6B1FBF6F12678247894
:100C7000761CB5FBF6F6B2FBF6F2641CB5FBF4F499
:100C8000B3FBF4F4B0235A43130AC4EB0412064C2A
:100C900000EB4000C2F317122354204441708270CD
:100CA00070BD000004000020440200202DE9F8433C
:100CB0005C4C0020E070A18821B95B4991F82110BB
:100CC000012902D00020BDE8F8838DF800005748C4
:100CD00000F1100159E002789DF800309A401206A8
:100CE00001D5627800E0A2789DF8003041F8232019
:100CF00042789DF800309A40120601D5627800E0F3
:100D0000A2789DF8003001EB83031A6282789DF887
:100D100000309A40120601D5637800E0A3789DF870
:100D2000002001EB82021364C2789DF800309A40E3
:100D3000120601D5627800E0A2789DF8003001EB40
:100D400083031A6602799DF800309A40120601D595
:100D5000627800E0A2789DF8003001EB8303C3F8CD
:100D6000802042799DF800309A40120601D56278C1
:100D700000E0A2789DF8003001EB8303C3F8A020C7
:100D80009DF80020521C8DF800209DF80020082AB4
:100D9000A1D3274FDFF89C80DFF89C90274D0226D7
:100DA00095F83E000228FBD095F83E000128F7D1C7
:100DB00085F83E60686A30238762696AC1F82C80D2
:100DC000696AC1F8309019492A6810313432686A6A
:100DD00000F0F0FB0028E3D12868C16841F40071FD
:100DE000C16017492868884203D1426C42F400422E
:100DF00042642868884208D0B0F1804F05D011497C
:100E0000884202D01049884204D1816801F007016C
:100E1000062903D0016841F001010160A68002208B
:100E200051E7000004000020C40500204402002017
:100E30004D0E0008CD0F0008FB470008A804002055
:100E4000002C01400004004000080040F8B55A4959
:100E5000446A88427BD159498C4278D1584DA9883F
:100E6000002974D0616A0126814205D12677806904
:100E7000F8B984F83E601CE0A16A814206D10221E3
:100E800021778069A8B984F83F6012E0E16A814265
:100E900006D104212177806958B984F8406008E0C0
:100EA000216B814205D108212177806908B984F836
:100EB0004160A888002705284AD28DF80070414972
:100EC00001F110003BE0AA8802EB42028A5C9DF827
:100ED00000309A40120601D56A7800E0AA789DF8A1
:100EE000003000EB83031A66AA8802EB42020A4430
:100EF00052789DF800309A40120601D56A7800E0D9
:100F0000AA789DF8003000EB8303C3F88020AA88FC
:100F100002EB42020A4492789DF800309A40120691
:100F200001D56B7800E0AB789DF8002000EB8202E1
:100F3000C2F8A0309DF80020521C8DF800209DF8CA
:100F40000020082ABFD3A888401CA88031E031E0E7
:100F5000A888072805D21B4860217030FFF757F991
:100F6000F1E7AF802068C16821F40071C160606A58
:100F700000F0FCF9144B41F2111120688A109842DC
:100F800009D1036A0B4206D1036A134203D1436CB1
:100F900023F4004343642068036A0B4206D1016ACC
:100FA000114203D1016821F00101016084F83E6023
:100FB000EE702777F8BD0000C4050020A8040020CB
:100FC0000400002044020020002C014038B52F4AC4
:100FD000416A904250D12E4881424DD12D4CA0887B
:100FE000002849D0A088052847D200208DF80000AD
:100FF000294901F1100038E0A28802EB42028A5C24
:101000009DF800309A40120601D5627800E0A2787F
:101010009DF8003040F82320A28802EB42020A44E7
:1010200052789DF800309A40120601D5627800E0AF
:10103000A2789DF8003000EB83031A62A28802EBCD
:1010400042020A4492789DF800309A40120601D577
:10105000627800E0A2789DF8003000EB83031A6408
:101060009DF80020521C8DF800209DF80020082AD1
:10107000C2D3A088401CA08038BDA0880728FBD21E
:10108000054860211030FFF7C2F8F2E7C4050020E0
:10109000A80400200400002044020020FEE70020F5
:1010A000704700207047000010B500220449054831
:1010B00003F026FE0449034803F01CFE002010BD87
:1010C000402A0020942100205826002010B5014617
:1010D000034803F00FFE024803F0F0FD002010BDAE
:1010E00094210020094A10B5D2F8B822D2F814226F
:1010F0000AB1012010BD0A460146044803F000FE73
:10110000BDE81040014803F059BE000094210020C2
:101110002DE9F04F0C4681498346A079D1E9009131
:1011200087B0884680B14FF47A7500BF00F0A4FB09
:10113000A168401AA8420AD249B1D4E90301CBE917
:10114000001007B0BDE8F08F4FF4FA65EEE700F04D
:1011500093FB401C4FF0000AA060CDF808A0CDF82A
:101160000CA0CDF810A0CDF814A05546A1880122FE
:10117000206800F07CFBA088029011200390E079A9
:1011800004900320059002A9206800F07BFAA18852
:101190000022206800F06BFB122000F043FAA188C7
:1011A0000122206800F063FB0295039504950595E4
:1011B000A0880290E079049002A9206800F062FA09
:1011C00072B600264FF0434542F2107707E0761CD6
:1011D000B6B2BE4203D962B62561E56018E0A188C7
:1011E000206800F03FFB0128F1D0002603E0761CC8
:1011F000B6B2BE42EFD8A188206800F033FB0128C8
:10120000F5D1002507E06D1CADB2BD4203D962B631
:10121000CBE9009895E7A188206800F023FB01281E
:10122000F1D0CDF800A0CDF804A04FF0000A0727B8
:101230000026354601E06D1CADB2A188206800F0A3
:1012400011FB012806D0A5F57F40FF38F3D101E05E
:10125000761CB6B2A188206800F004FB012803D1F7
:10126000A6F57F40FF38F3D1AE4206D91DF80A003B
:101270000122BA4010430DF80A007F1EFFB2FF2F73
:10128000D6D10AF1010000F0FF0ABAF1050FCED362
:1012900062B69DF800009DF801109DF802509DF87F
:1012A000032001442A4411449DF80420C9B291420C
:1012B00026D1A179012901D039B321E0BDF8000080
:1012C00040BAFFF7F5F8164E3146FFF703F88146AE
:1012D0009DF80200000606D4BDF8020040BAFFF7F0
:1012E000E7F8314609E025F080008DF80200BDF8EE
:1012F000020040BAFFF7DCF80A49FEF7EBFF804630
:10130000C4E90389CBE900981BE7FFF7D1F88146D0
:101310009DF80200FFF7CCF8F1E700005C780008C8
:10132000CDCCCC3DCDCCCCBD014800F06BB800009D
:10133000C405002030B590F840500124AC40C56B86
:101340006C60046863604368102B036803D0996085
:101350000068C26030BD9A600068C16030BD7047EF
:10136000202000F083B972B6FEE7000010B590F8B7
:1013700021100024022903D00421816301243DE0CF
:1013800001680A6822F00E020A6001680A6822F009
:1013900001020A601A4A0168914201D1012121E04B
:1013A000174A1432914201D110211BE0144A28320D
:1013B000914201D1891515E0114A3C32914201D187
:1013C00089140FE00E4A5032914202D14FF480311D
:1013D00008E00B4A6432914202D14FF4801101E0DF
:1013E0004FF08071064A083A5160012180F82110BF
:1013F000002180F82010416B01B18847204610BDC4
:10140000080002402DE9F05FC16B0C6801680B68B1
:10141000D0F840C0042202FA0CF2494DDFF824A1B2
:10142000494E4A4FDFF828B1DFF828E122422CD09C
:101430005A072AD50A68920603D40A6822F00402E1
:101440000A600168A94201D1042219E0514501D185
:10145000402215E0B14202D14FF4806210E0B9425F
:1014600002D14FF480420BE0594502D14FF4802263
:1014700006E0714502D14FF4800201E04FF0806236
:101480002F4908394A60C16A3BE04FF0020808FA68
:101490000CF818EA040F4FF000094FF0010235D0A4
:1014A0005FEA837832D50B689B0605D40B6823F07E
:1014B0000A030B6080F821200168A94201D10222B1
:1014C00019E0514501D1202215E0B14202D14FF47B
:1014D000007210E0B94202D14FF400520BE05945BE
:1014E00002D14FF4003206E0714502D14FF40012F0
:1014F00001E04FF00072124908394A6080F82090EC
:10150000816A00291AD0BDE8F05F0847082505FA6E
:101510000CF5254212D01B0710D50B6823F00E03E3
:101520000B6090F84010C36B02FA01F159608263BE
:1015300080F8212080F82090016BE2E7BDE8F09F61
:10154000080002401C0002403000024044000240FB
:10155000580002406C00024030B528B308C8134957
:1015600014221944B1FBF2F18900C163104981636F
:10157000022141771A6843F6F0718A43D0E90014DA
:101580002143D0E902452C432143046921434469A6
:1015900021438469214311431960002141630122E1
:1015A00042770177084630BD012030BDF8FFFDBF0E
:1015B0000000024070B5044690F820000025012884
:1015C0000CD0012084F8200094F821600020012E26
:1015D00006D084F820000225284670BD022070BD88
:1015E000022684F82160A0632068066826F00106C0
:1015F00006602046FFF79EFEE06A0028206801682A
:1016000002D041F00E0106E021F0040101602068E3
:10161000016841F00A0101602068016841F00101A0
:101620000160D9E770B5044600F026F90546601C54
:1016300002D004480078044400F01EF9401BA04288
:10164000FAD370BD6000002010B5202808D1054CE9
:10165000607828B1044801F0EBFD0020607010BDF7
:1016600000BF10BD0C00002060040020044910B52C
:101670000A68024202D00860FFF7E6FF10BD0000D2
:10168000140401402DE9F84FDFF8B891002409F166
:10169000040A0AF1040B23460F270BF1040EC9E0DC
:1016A0000125A5402A40AA427DD1674ED1F804C049
:1016B000ACEB0608B44532D014DCBCF1030F3AD0D1
:1016C00009DCBCF1000F2AD0BCF1010F1CD0BCF129
:1016D000020F31D11DE0BCF1110F17D0BCF1120F78
:1016E0002AD119E0B8F5881F19D006DCB8F5803F7B
:1016F00015D0B8F5801F1FD111E0B8F5001F0ED02E
:10170000B8F5041F18D10AE0CB6815E0CB681B1DA3
:1017100012E0CB6808330FE0CB680C330CE08B6829
:101720002BB1012B4FF0080303D0456104E00423E3
:1017300002E0056100E00023FF2A01D8064601E02F
:1017400000F104064FEA840501D9A5F12005D6F879
:10175000008007FA05FC28EA0C0803FA05F548EAB8
:101760000508C6F800804D68ED0062D5374DAE69BA
:1017700046F00106AE61AD6924F0030605F00105EF
:101780000095334D06EB050CDCF80850A607360F24
:1017900007FA06F825EA0805DFF8B880404503D1C6
:1017A0004FF0000817E044E0DFF8AC80404502D17C
:1017B0004FF001080FE0DFF8A480404502D14FF060
:1017C000020808E0DFF89880404502D14FF0030896
:1017D00001E04FF0040808FA06F848EA0508CCF8DA
:1017E00008804D68D9F80060ED034D4601D51643D9
:1017F00000E096432E604D68DAF80060AD03554670
:1018000001D5164300E096432E604D68DBF800607A
:10181000ED025D4601D5164300E096432E604D680B
:10182000DEF80060AD02754601D5164300E0964330
:101830002E60641C0D682A46E5407FF431AFBDE898
:10184000F88F000000040140000011100010024059
:101850000000014000080140000C01400010014060
:10186000001401408068084000D0012070470AB190
:10187000016170470904FBE7014880687047000078
:101880006000002070B5040025D094F83D000025CC
:1018900020B984F83C50204600F0B8F8242084F8A1
:1018A0003D002068016821F00101016020680168A5
:1018B00041F4004101602068016821F400410160A9
:1018C00000F096FF4D4A6168914201D84C4900E012
:1018D0004C49884201D2012070BD4B492368B0FBBE
:1018E000F1F15E6826F03F060E435E606368934246
:1018F00006D94FF4967359434FF47A73B1FBF3F161
:101900002368491C1E6A26F03F063143196261684C
:10191000914210D84900401EB0FBF1F2521CC2F3B4
:101920000B02042A01D2042022E0B0FBF1F0401C9B
:10193000C0F30B001CE0A268F2B301EBC10303EBA0
:101940000116431EB3FBF6F35B1C43F480431B05F7
:1019500049D092B301EBC10202EB0111401EB0FB72
:10196000F1F0401CC0F30B0040F4804040F4004014
:101970002168CA694CF6FF739A431043C861D4E9E1
:10198000071001432068026822F0C0021143016081
:10199000D4E9030101432068826848F2FF339A4387
:1019A00011438160D4E9050108432168CA6822F027
:1019B000FF021043C86001E00EE016E020680168F5
:1019C00041F0010101602564202084F83D00256379
:1019D00084F83E50002070BD01EB4106431EB3FB6E
:1019E000F6F35B1CB3E70120C2E701EB4101401EA7
:1019F000B0FBF1F0401CC0F30B00B7E7A08601007C
:101A000080841E0000093D0040420F0010B586B0E2
:101A10000021009101910291039100680F498842D1
:101A20001AD10F4CA06940F00800A061A069694676
:101A300000F008000490C0200090122001900320C4
:101A400003900848FFF71EFEE06940F40010E061D3
:101A5000E06900F40010049006B010BD005400408E
:101A600000100240000C01400248816802781144D5
:101A70008160704760000020074810B5016841F0A0
:101A800010010160032000F0A7F80F2000F006F815
:101A900000F050F8002010BD0020024030B505468F
:101AA0001F4887B0C16941F00401C161C06906A93E
:101AB00000F00400009001A800F07AFE0498B0B194
:101AC00000F096FE40001749174AB0FBF1F11748A5
:101AD000491E0260416040F2E7320021C0E9032163
:101AE0008160816101F0F8FA040003D015E000F094
:101AF0007FFEE8E70D4801F09BFB04000DD11E209E
:101B000000F03CF8102D07D2002229461E2000F0DC
:101B100043F80748056000E0012407B0204630BDC7
:101B20000010024040420F00000800405C08002006
:101B3000640000200F4808B5816941F0010181610E
:101B4000816901F001010091C16941F08051C161D9
:101B5000C069002200F0805000900F21901E00F01C
:101B60001BF80548416821F0E06141F000714160D7
:101B700008BD00000010024000000140002809DB01
:101B800000F01F02012191404009800000F1E02097
:101B9000C0F8001170470000F0B40E4B1B680C46F3
:101BA000C3F30223C3F10705042D00D90425191D31
:101BB000072901D2002300E0DB1E012606FA05F109
:101BC000491E214099409E40761E16403143F0BC8C
:101BD00004F098BB0CED00E0064900F0070208682D
:101BE0004FF6FF03184040EA0220034A1043086002
:101BF000704700000CED00E00000FA0510B50C067F
:101C000007D501F0070101EB810100EBC10028308D
:101C100005E001EB810100EBC10000F5B47099B261
:101C200032B1012202730181190C4181002010BDE3
:101C300000220273C180F9E7704701EB810200EBDB
:101C4000C202D0F8E802D26B03F067BA01EB81025E
:101C500000EBC202D0F8E802D2F87C2103F0C0BA4F
:101C600070B504460B0601F0070000EB800104EBA1
:101C7000C1014FF001024FF0000503D581F8292082
:101C8000283103E081F8695101F5B471087094F8C6
:101C9000A802012808D084F8A822206803F0E0FEFA
:101CA00084F8A852002070BD022070BD70B50446B3
:101CB00001F00F006268904201D9012070BD0B064F
:101CC00001F0070000EB800104EBC1014FF00102BD
:101CD0004FF0000503D581F82920283103E081F871
:101CE000695101F5B4718D70087094F8A80201284B
:101CF00008D084F8A822206803F04FFF84F8A85287
:101D0000002070BD022070BD2DE9F05F04685FEA1D
:101D1000424C0B788D69B4F850C04FF000064BF67A
:101D20008F7948F2800A48F68F7B48F2C00E4FF454
:101D300080672AD54FF0020808EBC308C44407EBBC
:101D40004C07E45BC4F30904A54203D32D1B8D614A
:101D500001D00BE08E61066836F8235005EA0905CC
:101D600085F4005545EA0A0526F82350520609D5A0
:101D70000D78036833F8252002EA0B0242EA0E02CE
:101D800023F8252084B30A8929E04FF0060808EBE0
:101D9000C308C44407EB4C07E45BC4F30904A54241
:101DA00003D32D1B8D6101D00BE08E61066836F8E0
:101DB000235005EA090585F4005545EA0A0526F889
:101DC0002350520609D40B78056835F8232002EA1F
:101DD0000B0242EA0E0225F823202CB14A894969F8
:101DE0000068234604F048FA2046BDE8F09F2DE93C
:101DF000F05F054600680C465FEA426C16468B6948
:101E00002278B0F850C048F68F774CF280094FF630
:101E1000FF7B4FF4004E4FF4806A4FF000017BD5FA
:101E20004FF0020808EBC208E0440AEB480C30F817
:101E30000C00C0F30900834211D91B1AA3610FD013
:101E4000730407D52E6836F822303B4043EA090375
:101E500026F8223094F82420012A50D04EE1A161C6
:101E6000607810B1012813D01AE02868B0F850301B
:101E7000184400EB0210B0F8042422F4F842A0F851
:101E80000424B0F8042442F40042A0F8042407E03B
:101E90002868B0F85030184400EB0210A0F8041481
:101EA0006278286812B1012A11D018E0B0F85010F9
:101EB0000844217800EB0110B0F80C1421F4F8412B
:101EC000A0F80C14B0F80C1441F4004105E0B0F88F
:101ED00050201044227800EB0210A0F80C14217856
:101EE0002846FFF7AAFE7004B8D521782A6832F890
:101EF0002100384040EA090022F82100FEE0626932
:101F000002446261E2690244E2612369226A9A4200
:101F100003D31846111A04E038E084F824100AB1FB
:101F200010462162617811B1012923D02BE0296884
:101F3000B1F850201144227801EB021101F2044162
:101F400048B13E280FD84208C30700D0521C0BEA04
:101F500082220A8017E00A8822F4F8420A800A885E
:101F600042F40042F5E74209C30600D1521E4EEA90
:101F70008222EEE72968B1F850201144227801EB63
:101F80000211A1F8040483B22289B3E04FF00608DD
:101F900008EBC208E0440AEB480C30F80C00C0F330
:101FA0000900834211D31B1AA3610FD0730407D415
:101FB0002E6836F822303B4043EA090326F82230E7
:101FC00094F82420012A50D098E0A161607810B1E3
:101FD000012813D01AE02868B0F85030184400EBFC
:101FE0000210B0F8042422F4F842A0F80424B0F857
:101FF000042442F40042A0F8042407E02868B0F862
:102000005030184400EB0210A0F8041462782868DD
:1020100012B1012A11D018E0B0F85010084421780C
:1020200000EB0110B0F80C1421F4F841A0F80C14E6
:10203000B0F80C1441F4004105E0B0F85020104411
:10204000227800EB0210A0F80C1421782846FFF744
:10205000F4FD700452D42278296831F82200384007
:1020600040EA090021F8220048E062690244626106
:10207000E2690244E2612369226A9A4203D3184664
:10208000111A216204E00AB11046216284F824107A
:102090006278296812B1012A22D029E0B1F85020D3
:1020A0001144227801EB021101F20C4148B13E28A3
:1020B0000FD84208C30700D0521C0BEA82220A80C4
:1020C00016E00A8822F4F8420A800A8842F40042A4
:1020D000F5E74209C30600D1521E4EEA8222EEE71E
:1020E000B1F850201144227801EB0211A1F80C0440
:1020F000628983B26169286804F0DCF821782A6873
:1021000032F8210048F6BF73184080F0300048F2E2
:102110008003184322F821000020BDE8F09F01F061
:10212000070101EB810100EBC100D0F88401704789
:102130002DE9F04104460F0601F0070000EB800195
:1021400004EBC1014FF001064FF0000503D581F803
:102150002960283103E081F8695101F5B4710870F4
:102160000A61CB704A7802B1C881022B00D10D718F
:1021700094F8A802012809D084F8A862206803F026
:1021800041FB284684F8A852BDE8F0810220FBE715
:1021900070B50C4601F0070505EB850100EBC101A8
:1021A000C1E95F230022C1F8842181F8692181F807
:1021B000685101F5B4716207006803F043FD002027
:1021C00070BD70B504460D4601F007006168884295
:1021D00001D9012070BD29064FF000064FF0010221
:1021E00007D500EB800104EBC10181F829202831DB
:1021F00007E005EB850104EBC10181F8696101F598
:10220000B4718A70087094F8A802012807D084F885
:10221000A822206803F0FDFC680702D006E0022037
:1022200070BD04F52C71206803F0B5FC84F8A86239
:10223000002070BD70B50C4601F0070505EB850167
:1022400000EBC101C1E90F23012281F84C208B640E
:1022500000234B6481F8292001F8285F6207006899
:1022600003F0F0FC002070BD1FB50446006803F0C9
:10227000FFFF000402D5204601F0BCFD206803F0FA
:10228000F7FF40050CD5206830F8441F21F4806129
:102290000180204600F01EF90021204600F035F9AB
:1022A000206803F0E5FF400405D5206830F8441F9E
:1022B00021F480410180206803F0DAFF800405D515
:1022C000206830F8441F21F400510180206803F099
:1022D000CFFFC00414D5206830F8401F21F004015E
:1022E0000180206830F8401F21F00801018020465D
:1022F00000F003F9206830F8441F21F48051018078
:10230000206803F0B5FF00053ED52268002069462D
:1023100032F8203021F81030401CC0B20828F7D322
:1023200032F8400F40F001001080206830F8402F54
:1023300022F0010202802068B0F844205205FBD54B
:1023400030F8442F22F4806202800020236831F8A4
:10235000102023F82020401CC0B20828F6D32068A3
:1023600030F8401F41F008010180206830F8441F18
:1023700021F400610180206830F8401F41F0040121
:102380000180204600F0F6F8206803F071FF800518
:1023900008D5206830F8441F21F4007101802046E0
:1023A00000F0AFF8206803F063FFC00505D5206892
:1023B00030F8441F21F4807101801FBD2DE9F041E8
:1023C00086B0040004D094F8A902002520B108E0EA
:1023D000012006B0BDE8F08184F8A852204600F044
:1023E0005BF8032084F8A902206803F0CDFB04F118
:1023F0001001142288466846FDF7F0FE94E80F00AD
:1024000003F02CFB0226D0BB0021206803F04AFF1A
:10241000002001270FE000BF00EB800104EBC101A9
:1024200081F8297001F8280FC881CD700D614D61C8
:10243000401CC0B28D6161688142EDD8002011E07E
:1024400000EB800104EBC10181F8695181F868015A
:1024500081F86B51C1F87851C1F87C51401CC0B271
:10246000C1F8805161688142EAD814224146684629
:10247000FDF7B4FE94E80F0003F07DFB10B184F883
:10248000A962A5E784F8245084F8A972206803F0B3
:1024900070FB00209DE7000008B500680B498842EA
:1024A00012D10B48C16941F40001C161C069002229
:1024B00000F40000009005211420FFF76DFBBDE83B
:1024C00008401420FFF75ABB08BD0000005C004024
:1024D0000010024070B5044680680125022801D032
:1024E000FEF741FF2946D4F8E80202F062FFD4F873
:1024F000E802BDE8704002F01EBFD0F8E80202F02A
:1025000042BFD0F8E80202F048BF10B5044690F888
:10251000A80201280BD0012084F8A80284F8241016
:10252000206803F0C1FE002084F8A80210BD02203C
:1025300010BDD0F8E82200F52C71104602F045BF1E
:1025400010B5044690F8A802012810D0012084F8A4
:10255000A802206803F07CFE01212046FFF76CFBF7
:10256000206803F004FB002084F8A80210BD0220BC
:1025700010BD000010B50446D0F8E80202F064FF78
:10258000A069002804D00348016841F006010160F9
:1025900010BD000010ED00E02DE9F843054600787D
:1025A000354CC00754D0E0690026C00008D4E0696B
:1025B00040F08050E061E069012600F0805000901A
:1025C0002E480168C90512D40168804641F4807123
:1025D0000160FFF751F9074605E000BFFFF74CF92E
:1025E000C01B642823D8D8F80000C005F6D5206A9F
:1025F00010F4407021D0A98801F4407181421CD0B0
:10260000206A1F49012220F440700A6000220A60FB
:102610002062C00711D0FFF72FF9074641F2883832
:1026200008E000BFFFF728F9C11B414502D903208C
:10263000BDE8F883206A8007F4D5206A696820F431
:102640004070084320621EB1E06920F08050E061D4
:102650002878800705D56068A96820F440400843C1
:1026600060602878C00605D56068E96820F48000BD
:10267000084360600020DBE700100240007000406B
:10268000400442422DE9F0470F46050061D0434E19
:10269000306800F00700B84209D2306820F0070027
:1026A00038433060306800F00700B84251D12868E4
:1026B0003B4C810712D5400703D5606840F4E060C9
:1026C00060602878000703D5606840F4605060605F
:1026D0006068A96820F0F000084360602878C007AF
:1026E00028D06868012810D02168022810D08907F6
:1026F00000292EDA616821F0030101436160FFF7D0
:10270000BBF8804641F288390DE021688903EFE784
:102710008901EDE7FFF7B0F8A0EB0801494502D9C0
:102720000320BDE8F0876068696800F00C00B0EB3A
:10273000810FEFD1306800F00700B8420BD9306844
:1027400020F0070038433060306800F00700B842DE
:1027500001D00120E5E72878400705D56068E968E1
:1027600020F4E060084360602878000706D56068C0
:10277000296920F4605040EAC100606000F058F818
:102780006168084AC1F30311515CC84006490860FA
:1027900006480068FFF782F90020C2E700200240E7
:1027A00000100240607900086C00002064000020E6
:1027B0000F2202600C4A536803F00303436053681E
:1027C00003F0F0038360536803F4E063C36052686E
:1027D0004FF4E06303EAD20202610448006800F0AB
:1027E000070008607047000000100240002002400F
:1027F0000448054900684968044AC1F30221515C54
:10280000C84070476C00002000100240707900083A
:102810000448054900684968044AC1F3C221515C73
:10282000C84070476C00002000100240707900081A
:1028300012A185B00FC98DE80F0014A0144A0068DA
:1028400004905168134801F00C03042B10D0082B9E
:102850000ED1C1F38343C9031DF803000AD55168A3
:1028600004AAC1F34041515C0A4A5043B0FBF1F065
:1028700005B0704708494843FAE700000203040521
:10288000060708090A0B0C0D0E0F101001020000BC
:102890000010024000127A0000093D002DE9F84FB7
:1028A000040070D02078C04DC00749D06868C0F3DC
:1028B0008100012807D06868C0F38100022809D18F
:1028C0006868C00306D52868800339D56068002889
:1028D000E7D035E06068B0F5803F0BD010B1B0F5BF
:1028E000A02F11D0286820F480302860286820F4B8
:1028F000802002E0286840F480302860606890B151
:10290000FEF7BAFF06460AE0286840F480202860F7
:10291000F0E700BFFEF7B0FF801B642873D828687B
:102920008003F7D50CE0FEF7A7FF064605E000BFE1
:10293000FEF7A2FF801B6428F0D828688003F7D434
:1029400020789A4E80074FF001094FF0000839D5E2
:10295000686810F00C0F07D06868C0F38100022887
:1029600009D16868C00306D42868800714D5206997
:10297000012808D110E02069B0B1C6F80090FEF738
:102980007BFF074605E00AE1FEF776FFC01B022841
:10299000C4D828688007F7D52868616920F0F80056
:1029A00040EAC10028600DE0C6F80080FEF764FF31
:1029B000074604E0FEF760FFC01B022823D8286802
:1029C0008007F7D4207800072CD57948A169D9B1C0
:1029D000C0F80090FEF750FF074604E0FEF74CFFFA
:1029E000C01B02280FD8686A8007F7D571484FF4DA
:1029F000FA510068B0FBF1F0009000BF0098411E52
:102A00000091FAD20EE080E0C0F80080FEF734FFBB
:102A1000074604E0FEF730FFC01B022875D8686A3D
:102A20008007F7D42078400760D5E8690027C00008
:102A300008D4E86940F08050E861E869012700F0B7
:102A4000805000905C480168C90513D40168834632
:102A500041F480710160FEF70FFF824606E000BF7F
:102A6000FEF70AFFA0EB0A0064284ED8DBF800004E
:102A7000C005F5D5E06801280AD008B1052813D0B3
:102A8000286A20F001002862286A20F0040002E091
:102A9000286A40F001002862E06841F2883B98B162
:102AA000FEF7EAFE82460BE0286A40F00400286246
:102AB000EEE700BFFEF7E0FEA0EB0A0159455AD849
:102AC000286A8007F6D50CE0FEF7D6FE824605E0C0
:102AD000FEF7D2FEA0EB0A0159454CD8286A8007C0
:102AE000F6D41FB1E86920F08050E861E06988B34E
:102AF0006968C1F38101022944D00228C6F86080C8
:102B000004D0FEF7B9FE044638E034E0FEF7B4FE28
:102B1000074604E0FEF7B0FEC01B02282BD8286849
:102B20008001F7D4206AB0F5803F05D16868A168BC
:102B300020F4003008436860D4E90801084369685C
:102B400021F4741108436860C6F86090FEF794FEA3
:102B5000044606E025E000BFFEF78EFE001B0228BB
:102B600009D828688001F7D51BE000BFFEF784FE76
:102B7000001B022802D90320BDE8F88F28688001D5
:102B8000F4D40EE00128F7D06868226A00F480319E
:102B9000914204D1616A00F47010884201D0012092
:102BA000EAE70020E8E7000000100240000042428F
:102BB000800442426C0000200070004070B50400A8
:102BC00009D0606A002540B125616561A56294F86D
:102BD000510040B10CE0012070BD6068B0F5827F0B
:102BE000F4D0E561F2E784F85050204600F040F858
:102BF000022084F851002068016821F04001016042
:102C0000A088218900F4827001F404410843A1895D
:102C100001F400610843217C01F002010843217D99
:102C200001F001010843218B01F400710843217F69
:102C300001F03801084394F8201001F080010843A6
:102C4000218D01F40051084321680860A069042126
:102C500001EA1040216848602068C16921F40061E0
:102C6000C1616565012084F85100002070BD00003D
:102C700030B585B000240094019402940394274D4C
:102C80000368274802210322AB421DD1836943F424
:102C900080538361836903F480530493836943F011
:102CA0000403836180691F4D00F00400049020201C
:102CB000CDE90001039269462846FEF7E3FC402077
:102CC000CDE90004029422E0174DAB4223D1C36941
:102CD00043F48043C361C36903F48043049383696D
:102CE00043F0080383618069104D00F008000490F0
:102CF0004FF42040CDE90001039269462846FEF7D3
:102D0000C1FC4FF48040CDE90004012002906946E7
:102D10002846FEF7B7FC05B030BD0000003001408A
:102D2000001002400008014000380040000C014043
:102D30002DE9F84F044640680025984616460F4690
:102D40004FF0040BB0F5827F01D1A06888B194F8F0
:102D50005000012818D0012084F85000FEF78CFDA7
:102D6000814694F851004FF0000A01280ED0022548
:102D700082E084F851B013460A462046CDF8008020
:102D800000F083F8BDE8F88F0220FBE7002F72D037
:102D9000002E70D084F851B0C4F854A0A763A68761
:102DA000E687C4F830A0A4F834A0A4F836A0C4F88C
:102DB00040A0C4F844A0A068B0F5004F09D1206835
:102DC000016821F0400101602068016821F4804120
:102DD000016020680168490603D4016841F04001A0
:102DE0000160E068D8B139E020688168C90709D07E
:102DF000007BA16B0870A06B401CA063E08F401E9D
:102E0000E0870CE0FEF738FDA0EB0901414503D354
:102E1000B8F1FF3F03D036E0B8F1000F33D0E08FB8
:102E20000028E1D11DE020688168C90709D0C06889
:102E3000A16B0880A06B801CA063E08F401EE08720
:102E40000CE0FEF719FDA0EB0901414503D3B8F1F1
:102E5000FF3F03D017E0B8F1000F14D0E08F002837
:102E6000E1D14A464146204601F05EF908B12020F2
:102E70006065606D00B10125012084F8510084F87F
:102E800050A028467EE70325F6E72DE9F84F0446D3
:102E900090F8500000270A9E1D4692468B464FF040
:102EA000010901280ED0012084F85000FEF7E4FC4F
:102EB000804694F85100616801280CD0B1F5827FFA
:102EC00007D102E00220BDE8F88FA16809B9042803
:102ED00001D00227C2E0BBF1000F27D0BAF1000FEA
:102EE00024D01DB394F85100042802D0052084F8A2
:102EF000510000206065C4F838A0E587A587C4F8B4
:102F000030B0E586A58620646064206801684906C3
:102F100003D4016841F040010160E068B0F5006F42
:102F2000606805D0E8B3012D46D07FE0012795E029
:102F300008B1012D39D1206B21680088C860206B51
:102F4000801C2063E08E401EE0862EE020688168B1
:102F500089070FD5E18E69B1B9F1010F0AD1216B53
:102F60000988C160206B801C2063E08E401EE086D3
:102F70004FF0000920688168C9070CD0E18F51B17A
:102F8000C068A16B0880A06B801CA063E08F401E0E
:102F9000E0874FF00109FEF76FFCA0EB0800B0429C
:102FA00000E009E001D3701C50D1E08E0028CDD1A3
:102FB000E08F0028CAD13FE0206B216800780873B9
:102FC000206B401C2063E08E401EE0862EE02068CF
:102FD000816889070FD5E18E69B1B9F1010F0AD176
:102FE000216B09780173206B401C2063E08E401E2A
:102FF000E0864FF0000920688168C9070CD0E18F96
:1030000051B1C068A16B0870A06B401CA063E08F39
:10301000401EE0874FF00109FEF72EFCA0EB0800F0
:10302000B04202D3701C01D010E07EB1E08E0028C7
:10303000CDD1E08F0028CAD142463146204601F06A
:10304000A1F828B101272020606507E0032705E0EB
:10305000A06818B92068C16880680090012084F8D1
:103060005100002084F8500038462CE77047704724
:1030700070B590F83C20012A26D0012480F83C400D
:10308000022280F83D2003685A689D6822F070068D
:103090000A6832435A600D4B02689A4208D0B2F176
:1030A000804F05D00A4B9A4202D00A4B9A4204D173
:1030B000496825F080031943916080F83D40002164
:1030C00080F83C10084670BD022070BD002C014005
:1030D000000400400008004010B5040003D094F83C
:1030E0003D0010B107E0012010BD002084F83C0035
:1030F000204600F01FF8022084F83D00211D2068C2
:1031000001F038FB012084F8460084F83E0084F882
:103110003F0084F8400084F8410084F8420084F8BD
:10312000430084F8440084F8450084F83D00002002
:1031300010BD000038B505460068244A2449904275
:1031400008D1886940F400608861886900F40060F3
:10315000009038BDB0F1804F25D01E4A9042F8D182
:10316000C86940F00200C861C8691C4C00F0020048
:10317000009019482060102060600020A06080202E
:10318000E06080002061800060612020A061C001BB
:10319000E0612046FEF7E0F908B1FEF7E4F86C6262
:1031A000AC63656238BDC86940F00100C861C86998
:1031B000002200F00100009005211C20FEF7ECFC2D
:1031C000BDE838401C20FEF7D9BC0000002C0140AF
:1031D00000100240000400406C000240C4050020C2
:1031E00090F83D10012901D001207047022180F89C
:1031F0003D1000680B49884208D0B0F1804F05D0DF
:103200000949884202D00949884204D1816801F005
:103210000701062903D0016841F001010160002087
:1032200070470000002C01400004004000080040EE
:1032300090F83D10012901D001207047022180F84B
:103240003D100168CA6842F00102CA6000680B497B
:10325000884208D0B0F1804F05D00949884202D099
:103260000849884204D1816801F00701062903D08A
:10327000016841F00101016000207047002C01400D
:1032800000040040000800400168CA6822F0010202
:10329000CA6001680A6A41F211131A4207D10A6A28
:1032A0009B101A4203D10A6822F001020A60012130
:1032B00080F83D100020704770B5044690F83C003F
:1032C000012817D0012584F83C50022084F83D00E5
:1032D0002068826822F0770222F47F4282600868C8
:1032E000502830D00DDC20284DD005DC98B31028B4
:1032F0003BD148E0022070BD302844D0402834D172
:1033000039E0602828D0702806D0B0F5805F2CD036
:10331000B0F5005F29D10AE0CB68D1E9012120682E
:1033200001F095FA2068816841F0770109E0CB68E7
:10333000D1E90121206801F08AFA2068816841F40E
:103340008041816011E0CA684968206801F034FB5F
:103350005021206807E016E0CA684968206801F03B
:103360003CFB6021206801F07CFA84F83D5000208D
:1033700084F83C0070BDCA684968206801F01CFBF5
:1033800040212068EFE7226801461046EBE77047CE
:10339000704770B50446006801694FF00005C943E5
:1033A000890715D4C168C943890711D4E91E016191
:1033B00001202077206880698007204602D0FFF72F
:1033C000E7FF04E000F0CAF8204600F059F925773D
:1033D00020680169C943490717D4C168C94349072F
:1033E00013D46FF004010161022020772068806906
:1033F00010F4407F204602D0FFF7CAFF04E000F03F
:10340000ADF8204600F03CF9257720680169C943F2
:10341000090716D4C168C943090712D46FF008011F
:103420000161042020772068C0698007204602D00F
:10343000FFF7AEFF04E000F091F8204600F020F91D
:10344000257720680169C943C90617D4C168C943F3
:10345000C90613D46FF0100101610820207720689D
:10346000C06910F4407F204602D0FFF791FF04E0CE
:1034700000F074F8204600F003F925772068016910
:10348000C943C90708D1C168C943C90704D1891E06
:103490000161204600F0F6F820680169C943090679
:1034A00009D4C168C943090605D46FF080010161E0
:1034B0002046FFF7DBFD20680169C943490609D4AE
:1034C000C168C943490605D46FF040010161204637
:1034D00000F000F920680169C94389060BD4C1686E
:1034E000C943890607D46FF0200101612046BDE879
:1034F0007040FFF7BCBD70BD00B585B000210091E4
:103500000191029103910068104988421BD1104833
:10351000816941F0080181618069694600F0080015
:10352000049010200090122001900320039009487D
:10353000FEF7A8F80848416821F4406141F0E061D5
:1035400041F40061416005B000BD0000000400408E
:1035500000100240000C014000000140704770B5AF
:10356000044690F83C000D4601280AD0012084F85A
:103570003C0042B1042A18D0082A2AD00C2A4DD186
:1035800039E0022070BD206801F074F9206881697B
:1035900041F0080181612068816921F004018161A5
:1035A000206881692A69114311E0206801F08AF9D5
:1035B0002068816941F4006181612068816921F49A
:1035C00080618161206881692A6941EA0221816103
:1035D00024E0206801F0A2F92068C16941F00801E7
:1035E000C1612068C16921F00401C1612068C1691D
:1035F0002A69114311E0206801F0BCF92068C16913
:1036000041F40061C1612068C16921F48061C16138
:103610002068C1692A6941EA0221C161002084F859
:103620003C0070BD10B5040003D094F83D0010B10B
:1036300007E0012010BD002084F83C00204600F087
:103640001EF8022084F83D00211D206801F092F848
:10365000012084F8460084F83E0084F83F0084F896
:10366000400084F8410084F8420084F8430084F864
:10367000440084F8450084F83D00002010BD7047E8
:103680007047000010B5044600680E49884201D119
:10369000FEF7EAF92068B0F1804F11D120210A48E5
:1036A000FEF7E0F800280BD108480121417081782D
:1036B00081F001018170BDE810400548FFF7E4BDCD
:1036C00010BD000000080040000C01400C0000206C
:1036D00060040020704770B5040004D094F83D00E9
:1036E000002510B106E0012070BD84F83C50204652
:1036F00000F022F8242084F83D002068C16821F4FD
:103700000051C160204601F07BF92068016921F475
:10371000904101612068416921F02A0141612068DE
:10372000C16841F40051C1602564202084F83D0047
:1037300084F83E00002070BD30B585B000240094B0
:1037400001940294039400681449884223D11448D8
:10375000C16941F40031C161C16901F400310491D2
:10376000816941F00401816180690E4D00F004001F
:1037700004900420009002200190032003906946E9
:103780002846FDF77FFF0820CDE90004694628465A
:103790000294FDF777FF05B030BD00000044004003
:1037A00000100240000801402DE9F843044690F85B
:1037B0003D001F4616460D4620284CD1C5B1BEB16E
:1037C00094F83C00012846D0012084F83C004FF0DA
:1037D0000008C4F84080212084F83D00FEF74CF832
:1037E000A6848146E684A068B0F5805F03D004E03B
:1037F0000120BDE8F883206928B12E465FF000055E
:1038000084F83C800EE00026FAE78021204601F093
:1038100053F9A0B9AEB116F8010B21684860E08CED
:10382000401EE084E08C4B464FF0000200970028D9
:10383000EBD14FF04001204601F03EF930B10320BA
:10384000D7E735F8020BC0F30800E6E7202084F83C
:103850003D000020CDE70220CBE7FEE770B52A4906
:10386000CA6942F40012CA618A6942F008028A6198
:103870008A6942F001028A6124490A6842F0407272
:103880000A600A6842F040620A600A6842F04052E8
:103890000A600A6842F040420A601D490A6842F420
:1038A00000420A6000220A601A4A1B4C0B1D126873
:1038B0001E68B2FBF4F535431D60154B1C331D1D0E
:1038C00010B1012807D019E01448B2FBF0F01860DD
:1038D000B2FBF4F010E01248B2FBF0F01860186888
:1038E00040F400401860B2FBF4F04FF4967250437D
:1038F0004FF47A72B0FBF2F0401C2860086840F088
:103900000100086070BD000000100240000C014082
:10391000005400406C00002080841E00801A0600C5
:10392000009F24000E4910B1012804D007E0086868
:1039300040F4806002E0086820F480600860084974
:103940001431081D0A685206FCD50268D207F9D066
:1039500002689207F6D5024810300068C0B270477E
:103960000054004030B5194D4006174A040E2B1D77
:10397000181D11B1012912D021E024F001012960A4
:103980001968890708D50168C90705D00168890742
:1039900002D50168490711D4521EF1D111E044F05B
:1039A000010129601968890705D50168C90702D096
:1039B0000168890702D4521EF4D102E00AB1012045
:1039C00030BD002030BD000040420F0010540040C8
:1039D00009490860081D011D02685207FCD50268EC
:1039E0001206F9D50A68D207F6D00A689207F3D50D
:1039F0000A685207F0D57047105400400848016823
:103A000041F48071016006491431081D0A68D2072B
:103A1000FCD00268D207F9D002689207F6D5704749
:103A2000005400400548016841F4007101600348FA
:103A300014300168C906FCD47047000000540040EF
:103A4000F0B500230A24302537261F4611E000BFB9
:103A5000B4EB107F02D905EB107C01E006EB107C83
:103A600001F813C001EB430C00015B1C8CF80170E2
:103A7000DBB29342ECD3F0BD2DE9F04385B00024D6
:103A800030480094019402940394816941F020012C
:103A90008161816901F020010491816941F0040193
:103AA0008161816901F004010491816941F008019B
:103AB00081618069DFF8908000F0080004900022A6
:103AC00048F211714046FDF7D2FEDFF880904FF4C6
:103AD0008057002239464846FDF7C9FE48F211508A
:103AE00001250326CDE90005CDE902466946404699
:103AF000FDF7C8FD01AA1120009782E86100694620
:103B00004846FDF7BFFD6802CDE900050220CDE97A
:103B1000024069464046FDF7B5FD202000900C4864
:103B2000CDE9010469464846FDF7ACFD00220521B8
:103B30001720FEF731F81720FEF720F805B0BDE892
:103B4000F08300000010024000080140000C01401A
:103B500000002110104810B50E4901604FF4827129
:103B600041604FF4806181604900C16000214FF4E1
:103B700000720161C0E905123822C0E907214162E3
:103B800081620A21C162FFF719F8002801D072B6DC
:103B9000FEE710BD00300140680300200F4810B55B
:103BA0000D4901604FF48271416000218160C16064
:103BB0004FF400720161C0E905123022C0E907210B
:103BC000416281620A21C162FEF7F8FF002801D03C
:103BD00072B6FEE710BD000000380040C0030020B0
:103BE00010B586B000241748009401940294039401
:103BF00004941349059401604821C0E901144FF66B
:103C0000FE71C0E9031444618461FFF765FA08B1ED
:103C100072B6FEE74FF48050009069460948FFF7FE
:103C20004BFB08B172B6FEE7049404A9054805945D
:103C3000FFF71EFA002801D072B6FEE706B010BDED
:103C4000002C01401804002010B586B0002416484E
:103C5000009401940294039404944FF080410594DD
:103C6000016048F6A041C0E901146421C0E90314D1
:103C70008461FFF731FA08B172B6FEE74FF4805065
:103C8000009069460848FFF717FB08B172B6FEE7D7
:103C9000049404A904480594FFF7EAF9002801D028
:103CA00072B6FEE706B010BD6004002010B58EB0FD
:103CB00000240794089409940A940B941C216846E4
:103CC0000C94FCF7A4FA1E481C49C0E900144FF6F6
:103CD000FF71C0E9024104618461FFF7FDF908B199
:103CE00072B6FEE74FF48050079007A91448FFF71B
:103CF000E3FA08B172B6FEE71148FFF793FC08B18A
:103D000072B6FEE70B940BA90D480C94FFF7B0F9BF
:103D100008B172B6FEE76020CDE9000402940022EB
:103D2000694607480494FFF71AFC08B172B6FEE72B
:103D30000348FFF7E1FB0EB010BD00000004004097
:103D4000A804002010B500220F49104801F0BEF968
:103D500008B1FDF708FB0E490C4801F09BFB08B1C8
:103D6000FDF701FB0B49094800F0BCFF08B1FDF766
:103D7000FAFA064801F0E4FB002803D0BDE8104041
:103D8000FDF7F1BA10BD0000D00000209421002002
:103D90000C0200202001002010B5124C002210213E
:103DA0002046FDF764FD322301220F490F48FEF73C
:103DB000BFFF012210212046FDF759FD0A480A4A9B
:103DC0000088521EC0F380011170C008FCF770FB20
:103DD0006FF00101FCF7EEFA0446FA20FDF722FC31
:103DE000204610BD000801400100002068030020AB
:103DF000FEE7FEE72DE9F84F044640F68F7B48F6D4
:103E00000F7A4FF002094FF4806874E1B0F8441063
:103E100011F00F063AD030F8267039047DD530F80D
:103E2000261001EA0B0141F0800120F8261006EB74
:103E3000860004EBC00595F8740105F5B4750028FB
:103E40006CD0E87802286AD02878226832F82010EE
:103E500048F68F73194048F2C003194322F8201026
:103E60002878D4F800C03CF82010BCF85020490451
:103E70007ED509EBC000111808EB41003CF80000AA
:103E80008005800D009074D02A89D8E0C9062DD411
:103E9000018801EA0A0141F400410180216804F12E
:103EA0002805B1F850202B7809EBC300024408EB39
:103EB0004200085AC0F309006064E16B0844E06303
:103EC00000212046FDF7B9FE94F8240000289CD07C
:103ED000A869002899D194F82400216840F0800056
:103EE000A1F84C00002084F8240004E1018804F5C6
:103EF000B4750A0521D5B0F850202B78062101EBC6
:103F0000C3010A4408EB4201405A04F52C71C0F386
:103F10000903EB61EA88206802E0ACE068E07AE03F
:103F200002F0AAF92168088800EA0B0040F080003E
:103F300008802046FEF7FDFADDE00904D5D50188AA
:103F400001EA0B0141F0800101802068B0F85020A7
:103F50002B78062101EBC3010A4408EB4201405AC9
:103F600083059B0DEB6110D0696971B1EA8801E0AE
:103F700058E056E0206802F07FF9E9696869084472
:103F8000686100212046FDF761FE2068018809056F
:103F90002DD4B0F850100844296900F20C4051B1FA
:103FA0003E2910D84A08C90700D0521C4FF6FF71AD
:103FB00001EA82210FE0018821F4F84101800188A3
:103FC00041F4004107E04A09C90600D1521E4FF4EE
:103FD000004141EA82210180206801884BF68F72FE
:103FE000114081F4405148F280021143018082E087
:103FF000D4F800C0BCF850102A78062000EBC200AC
:10400000014408EB41003CF800008005800D009061
:104010001AD0EA8813E03A4629462046FDF774FE96
:10402000009011E0062101EBC000111808EB4100DF
:104030003CF800008005800D009005D06A89034699
:104040006046696902F018F9E96900980844E86176
:104050006969009808446861A86918B129690098DD
:10406000814204D929782046FDF7F0FD03E0294676
:10407000206801F0E7FD38063DD506EB860004EB2D
:10408000C001206830F8262002EA0A0242F4004209
:1040900020F8262091F82B002831032804D018B1ED
:1040A000022824D1F80522D42368B3F850200D78D3
:1040B00009EBC500024408EB4200185A8A69C0F3B4
:1040C000090082420CD9121A8A610BD04A69024453
:1040D0004A61CA691044C861206801F0B3FD0AE072
:1040E00000208861E9B22046FDF7A7FD03E03A46CB
:1040F0002046FDF77CFE2068B0F8441009043FF527
:1041000085AE0020BDE8F88F0648417811B14178AE
:10411000491E41708178002902D08178491E817042
:10412000704700005C000020F8B5044640684FF47A
:104130008273984217D1A0684FF48065B0F5004FA4
:1041400001D0A8420FD12068066826F0400606601C
:104150006068984207D1A068A84204D100920B463B
:104160000022012103E000920B460022802120461C
:1041700000F018F8002804D0606D40F02000606561
:104180000320F8BD38B50B4600920446002280217A
:1041900000F008F8002804D0606D40F02000606551
:1041A000032038BD2DE9F8431E4691468846044653
:1041B000089DFDF761FB401B351AFDF75DFB0746C7
:1041C00025480068C0F3CB30684338E0701C37D016
:1041D000FDF752FBC01BA84203D215B1009860B393
:1041E0002CE02068416821F0E00141606068B0F592
:1041F000827F0BD1A068B0F5004F02D0B0F5806F80
:1042000004D12068016821F040010160A06AB0F586
:10421000005F09D12068016821F400510160206825
:10422000016841F400510160012084F85100002030
:1042300084F850000320BDE8F8830025401E00905C
:104240002068816838EA010004D000214945BDD1C9
:104250000020F0E70121F9E76C00002070B51F4D48
:104260004FF40044002221462846FDF700FB0A20B7
:10427000FDF7D8F9012221462846FDF7F8FA3C203F
:10428000FDF7D0F9302000F02BF8782002F0BEFCCA
:10429000302000F025F82D2002F0B8FC082000F0B6
:1042A0001FF8782002F0B2FC012000F019F80D2070
:1042B000FDF7B8F9062000F013F80220FDF7B2F977
:1042C0000C2000F00DF80220FDF7ACF9022000F000
:1042D00007F8BDE870400220FDF7A4B900080140CE
:1042E00070B501220D4E0446950229463046FDF771
:1042F000BEFAF82000F054F804F0F00000F050F896
:104300002007000E00F04CF8322002F07FFC294616
:104310003046BDE870400022FDF7A9BA0008014010
:1043200070B501220D4E0446950229463046FDF730
:104330009EFAFA2000F034F804F0F00000F030F8B3
:104340002007000E00F02CF8322002F05FFC294616
:104350003046BDE870400022FDF789BA00080140F0
:1043600010B5144641F0800370B1012804D0022832
:1043700005D0032808D105E041F0900304E041F0A6
:10438000880301E041F09803D8B2FFF7A9FF02E0EB
:10439000641CFFF7C5FF20780028F9D110BD00008C
:1043A0002DE9F0410F4F002405464FF40078BE156B
:1043B00005FA04F0000601D5012200E00022414682
:1043C0003846FDF754FA002231463846FDF74FFAD9
:1043D000012231463846FDF74AFA641C082CE7DB17
:1043E000BDE8F08100080140094C4FF4FA75002047
:1043F000FCF74CFB20600120FCF748FB60600220CA
:10440000FCF744FBA060284602F00AFDEFE700003D
:1044100034050020104C114E114F124DDFF848901A
:104420004FF0FF384FF4FA7A31466068FBF752FFDD
:104430003946FBF781FFA8624146A068FBF7BAFF47
:104440002168FBF744FF4946FBF744FFE86250460A
:1044500002F0E6FCE8E70000340500200080A244FA
:10446000000048430C000020000020411CB50B4C0C
:1044700041F28835094968463C31FCF749FE01980C
:10448000FCF728F8C0B260630098FCF723F8C0B2CC
:10449000A063284602F0C4FCECE700000C000020FA
:1044A000FFF750FC642002F0BBFCFBE70EB5244C88
:1044B0004FF4FA75206BFCF73AF802460B4621A13F
:1044C000254801F00BFF244894F8383094F8342044
:1044D00022A1103001F002FFA06AFCF728F8024682
:1044E0001D480B4622A1203001F0F8FEE06AFCF7DF
:1044F0001EF86278A67823788DE84C0002461648AC
:104500000B461EA1303001F0E9FE134A00210320C2
:10451000FFF726FF104A002110320220FFF720FF8C
:104520000D4A002120320120FFF71AFF0A4A00211C
:1045300030320846FFF714FF284602F071FCB9E755
:104540000C00002054433A202530362E30326620AD
:1045500064656743000000008405002054616D62BB
:104560002025644320524820256425252020000072
:1045700056202530372E336620560000492025303E
:10458000362E326620412564256425640000000033
:104590004FF47A74204602F043FCFBE70B4C4FF4D7
:1045A00096754FF00003A07860B1FF220021002033
:1045B000FCF748FBFCF77AFB0028FBD0284602F00A
:1045C0002FFCEEE70022FF21F1E700000C000020A5
:1045D00086B01D4CDFF874904FF47A7A206BFBF7AD
:1045E000A6FF07468846E06AFBF7A1FF05460E4690
:1045F000A06AFBF79CFFCDE904780B46024694F8CD
:10460000380094F83410CDE902101048CDE9005676
:104610000FA13F3801F062FE17A1484601F05EFE8F
:10462000A07860B1094840213F38FCF75BFD07499D
:1046300064233F394022A1F15400FFF7B5F85046FA
:1046400002F0EEFBCAE700000C000020830500200A
:104650002530372E33662C202530362E32662C201E
:104660002530322E30642C202530322E30642C2020
:104670002530362E303266000A000000054C4FF41B
:10468000FA7500BFFFF788FB2063284602F0C8FBDD
:10469000F8E700000C00002010B5502080F31188CE
:1046A000BFF34F8FBFF36F8F03F012F818B10449B7
:1046B0004FF080500860002080F3118810BD00008A
:1046C00004ED00E030B593B028216846FBF79FFD6C
:1046D00014210AA8FBF79BFD002401200F941094DD
:1046E0001194010412948DE8130004904FF4E0102B
:1046F000CDE90810022507956846FEF7CFF808B106
:1047000072B6FEE70F20CDE90A054FF48060CDE9CF
:104710000C4002210AA80E94FDF7B4FF08B172B64E
:10472000FEE710200F9012940FA8FDF735FF002828
:1047300001D072B6FEE713B030BD70470148FEF7F6
:1047400028BE000060040020084810B50178491C0C
:10475000017001780A2903D300210170FFF7D4FC0E
:10476000BDE810400248FEF714BE00005C000020C7
:104770005C080020F0B50268164B174C174D4FF03F
:104780008047984205D0B84203D0A04201D0A84249
:1047900003D122F070064A683243984205D0B842ED
:1047A00003D0A04201D0A84203D122F44074CA68C9
:1047B00022434C6922F08002224302608A68C2626E
:1047C0000A688262984201D109690163012141614D
:1047D000F0BD0000002C0140000400400008004033
:1047E00010B501F01F030121046A99408C43046253
:1047F000016A9A401143016210BD10B5446A01215B
:10480000626A824203D1217784F83E1019E0A26ADD
:10481000824204D10220207784F83F1011E0E26A3E
:10482000824204D10420207784F8401009E0226BF2
:10483000824204D10820207784F8411001E084F8F6
:104840003D102046FEF7A3FD0020207710BD10B5D7
:10485000846842EA032224F47F440A4322438260AC
:1048600010BD826822F070020A4342F007018160A5
:104870007047000030B5026A22F001020262026A4B
:104880004368846924F073050C682C4322F0020508
:104890008A682A430A4DA8420BD122F00805CA684B
:1048A00023F440732A434D6922F004021D438B69AF
:1048B0002B434360846149684163026230BD00005C
:1048C000002C014030B5026A22F010020262026A36
:1048D000436884690D6824F4E64444EA05248D683D
:1048E00022F0200242EA05120B4DA8420ED1CD68FB
:1048F00022F0800242EA05124D6923F4406343EA44
:1049000085038D6922F0400243EA85034360846198
:1049100049688163026230BD002C014030B5026AF3
:1049200022F480720262036A4268C46923F400734D
:1049300024F073050C682C438D6843EA05230C4D65
:10494000A8420ED1CD6823F4006343EA05234D69E4
:1049500022F4405242EA05128D6923F4806342EA50
:1049600005124260C4614968C163036230BD000042
:10497000002C014030B5026A22F480520262046ABF
:104980004268C3690D6823F4E64343EA05238D6852
:1049900024F4005444EA0534064DA84204D14D697C
:1049A00022F4804242EA85124260C3614968016490
:1049B000046230BD002C014010B5036A046A24F083
:1049C00001040462846924F0F00444EA021423F030
:1049D0000A020A438461026210BD10B5036A23F023
:1049E000100303628369046A23F4704343EA0232CA
:1049F00024F0A00343EA01118261016210BD0000AE
:104A000070B5044600680169E26821F44051114321
:104A100001612169A0680843616908432168CA6887
:104A200041F20C639A430243CA6020684169A2695B
:104A300021F44071114341611E492068884202D12E
:104A4000FDF7E6FE01E0FDF7D3FE00EBC00101EB50
:104A50000012606864218000B2FBF0F3B3FBF1F355
:104A60006FF018067343B2FBF0F5B2FBF0F605EBFE
:104A70008305322303EB0515B5FBF1F5B6FBF1F623
:104A800005F0F00505EB0615B2FBF0F6B2FBF0F011
:104A9000B0FBF1F06FF01802504306EB800003EB1F
:104AA0000010B0FBF1F0216800F00F00284488608E
:104AB00070BD0000003801402DE9F04198461746CE
:104AC0000E460446069D1DE0681C1BD02DB1FCF768
:104AD000D3FEA0EB0800A84214D92068C16821F4D5
:104AE000D071C1602068416921F00101416120203D
:104AF00084F83D0084F83E00002084F83C00032048
:104B0000BDE8F0812068006836EA000004D000208B
:104B1000B842D9D00020F3E70120F9E72DE9F041B0
:104B2000D0F8C032D0F8B822CAB101EB810500EB51
:104B300085040026E7693FB103EBC5039B6BB7FB18
:104B4000F3F503FB157323B1C2F814620020BDE82E
:104B5000F08100231A46E66100F07FFCF6E70220B0
:104B6000F5E770B50546D0F8B84200F07AFBC4F816
:104B70000C02D5F8B80248B1D5F8BC12D4F804023A
:104B8000CA6804F503719047002070BD022070BD13
:104B900070B504460026812100F0B6FA00250121F7
:104BA0002046E56200F0B0FA82212046C4F86C513C
:104BB00000F0AAFA2564D4F8B80248B1D4F8BC02CF
:104BC00004F52E7440688047206800F016FE2560CA
:104BD000304670BD10B5D0E9AE4159B194F800022D
:104BE000FF2807D08B6894F8012221469847FF20C0
:104BF00084F80002002010BD0A210180004870479F
:104C000034010020432101800048704784010020C6
:104C1000432101800048704740010020432101806A
:104C200000487047C80100202DE9F04104460026E5
:104C3000007C4FF40077012590B3402302228121AC
:104C4000204600F063FB4023E5620222012120465A
:104C500000F05CFB0823032282212046C4F86C513B
:104C600000F054FB4FF40770256400F0C7FDC4F852
:104C7000B802F8B10546D4F8BC02006880470020AD
:104C8000C5F81402C5F81802207CD5F8042298B1A2
:104C900040230121204600F045FB3046BDE8F0816D
:104CA000FFE73B4602228121204600F02FFB3B46D6
:104CB000E562CAE70126F0E73B46EAE710B5D0F81F
:104CC000B81269B1027C002AD1F8042205D0402331
:104CD000012100F027FB002010BD4FF40073F7E71F
:104CE000022010BD02460220002902D00020C2F896
:104CF000BC127047D0F8B802C0F804120020704708
:104D0000D0F8B802C0F81022C0F80812002070478E
:104D10002DE9FC410546D0F8B87200208DF800005E
:104D2000ADF80400064608780C4610F0600121D06A
:104D300020293BD1E288AAB10006607807D5D5F8D2
:104D4000BC128B6839469847E288394626E087F8D6
:104D50000002A07987F80102E2883946284600F06F
:104D60006AF828E0D5F8BC12607800228B682146EA
:104D7000984720E0607820B10A2809D00B2815D187
:104D800010E095F89C02032810D1022201A905E049
:104D900095F89C02032809D101226946284600F0B3
:104DA00064F808E095F89C02032804D021462846C0
:104DB00000F036F802263046BDE8FC8110B5D0F888
:104DC000B812A1B1D1F814220AB1012010BD0122FC
:104DD000C1F81422D1F810220263B1F8102293B264
:104DE000D1F80822812100F038FB002010BD0220FC
:104DF00010BD10B5D0F8B42252689047002010BD05
:104E0000134610B50A46002100F08CFA002010BDB0
:104E1000134610B50A46002100F01FFB002010BD0C
:104E200010B50446802100F0FDFA2046BDE8104090
:104E3000002100F0F7BA10B50323C0F85C21C0F8D8
:104E40009432C0F8602113460A46002100F06AFA45
:104E5000002010BD10B505210023C0F894121A4699
:104E6000194600F05FFA002010BD10B50223C261A0
:104E7000C0F89432026213460A46002100F0EDFAAF
:104E8000002010BD10B504210023C0F894121A466A
:104E9000194600F0E2FA002010BD000010B50A46E5
:104EA000024903A000F0E2F8004810BD5824002099
:104EB00043444320436F6E666967000012200880F8
:104EC00000487047F000002010B50A46024903A0D0
:104ED00000F0CCF8004810BD582400204344432083
:104EE000496E746572666163650000000420088085
:104EF00000487047EC00002010B50A46024903A0A4
:104F000000F0B4F8004810BD5824002053544D69F7
:104F100063726F656C656374726F6E6963730000B2
:104F200010B50A46024903A000F0A0F8004810BDE1
:104F30005824002053544D333220566972747561E1
:104F40006C20436F6D506F727400000010B51A2012
:104F500008800A480168001D0468001D00680818E0
:104F600009D008220649FEF76BFD054904221031DD
:104F70002046FEF765FD0248801E10BDE8F7FF1FC2
:104F800006010020F8B504460020ADF8000048886E
:104F90000D46010A082948D2DFE801F04704091745
:104FA00047473C45D4F8B012207C0A6819E0207CC1
:104FB00002260028D4F8B40205D0C16A68468847A2
:104FC000014646703EE0816AF8E7C0B206282CD25E
:104FD000DFE800F0030A1014181CD4F8B00242688D
:104FE00005E0694690471CE0D4F8B0028268E2B15F
:104FF000207CF6E7D4F8B002C268F8E7D4F8B00233
:105000000269F4E7D4F8B0024269F0E7D4F8B002DC
:105010008269ECE7207C40B9D4F8B402416B684661
:10502000884701460EE0207C20B129462046FFF744
:10503000F7FEF8BDD4F8B402016B68468847014614
:1050400007204870BDF8000048B1EA8852B182429A
:1050500000D90246ADF800202046FFF706FFE88899
:105060000028E6D12046FFF70DFFF8BD70B50023FC
:1050700000281ED00446002502E06D1CEDB2641C21
:105080002678002EF9D1022404EB4504148012780E
:10509000CA545B1C0322CA5400245B1C06E0CA5499
:1050A0005B1CDAB28C54521CD3B2401C0278002A2A
:1050B000F5D170BD01004FF0000004D0012901D0EE
:1050C000022901D0022070470120704710B580B13D
:1050D000D0F8B43213B10023C0F8B43209B1C0F82B
:1050E000B012012180F89C12027000F0BFF800207D
:1050F00010BD022010BD10B5D0F8C002FCF7D6FDDF
:10510000BDE81040FFF7D6BF10B5D0F8C002FCF7DD
:10511000A7FDBDE81040FFF7CDBF2DE9F0411746D0
:10512000044651B1D4F8B40242691AB194F89C0211
:10513000032851D00220BDE8F081D4F89432002534
:1051400004F11400022B03D0042B3AD0C3B33CE08B
:10515000D0E903639E4207D9F11AC1608AB2394689
:105160002046FFF755FE12E08068B0FBF3F103FB29
:10517000110199B9984211D3D4F8981288420DD2EE
:10518000002211462046FFF743FEC4F89852002340
:105190001A461946204600F0C5F816E0D4F8B402C5
:1051A000C16829B194F89C02032801D120468847A0
:1051B0008021204600F036F92046FFF74BFE04E040
:1051C000FFE78021204600F02DF994F8A002012885
:1051D00004D184F8A05201E0204690470020AAE7BD
:1051E00070B51546044649B1D4F8B40282691AB1C3
:1051F00094F89C02032830D0022070BDD4F8941299
:1052000004F5AA70032902D005291ED027E0D0E9B1
:1052100003218A420BD9531AC3600846834200D344
:1052200003469AB229462046FFF7EAFD17E0D4F874
:10523000B402016929B194F89C02032801D12046E7
:1052400088472046FFF71EFE09E000200146C4F80B
:105250009402204600F0E6F801E020469047002046
:1052600070BDD0F8C002FCF75ABF000010B504466C
:105270001C481D49C0F8E842C4F8C002016008217A
:1052800041600221816000218161C1610162FDF7FD
:1052900095F808B1FCF767F80022D4F8C00218238B
:1052A000114604F53074FCF7A9FC58230022802134
:1052B0002068FCF7A3FCC023002281212068FCF7B2
:1052C0009DFC4FF48873002201212068FCF796FCB6
:1052D0004FF48073002282212068FCF78FFC0020AD
:1052E00010BD000048300020005C00400A0601F0BC
:1052F0007F01D0F8C00201EB810100EBC10002D5B3
:1053000090F82A00704790F86A01704710B51C4663
:105310001346D0F8C0022246FCF70AFFBDE8104051
:10532000FFF7C8BE10B5D0F8C002FCF731FFBDE8EA
:105330001040FFF7BFBE70B500220446402311465F
:10534000FFF7E4FF40260125C4F8646133460022DC
:1053500080212046C4F85851FFF7D8FF6662A56146
:1053600084F89C520020C4F894026060C4F8A4023F
:10537000D4F8B80228B1D4F8B4020021426820461B
:105380009047002070BD90F89C12042903D190F83A
:105390009D1280F89C120020704710B590F89C1266
:1053A000032904D1D0F8B412C96901B1884700209B
:1053B00010BD01740020704710B5D0F8C002FDF791
:1053C000A4F8BDE81040FFF775BE70B5044600F5BF
:1053D0002A70054600F04AF80120C4F89402B4F897
:1053E000AE02C4F8980294F8A80210F01F010AD087
:1053F00001290DD0022910D000F08001204600F0D4
:1054000011F8002070BD2946204600F09EF8F8E70C
:105410002946204600F0CAF9F3E72946204600F065
:105420001DF9EEE710B5D0F8C002FCF7CAFEBDE8E2
:105430001040FFF73FBE10B5D0F8C002FDF780F86E
:10544000BDE81040FFF736BE90F89C1280F89D1220
:10545000042180F89C120020704710B5D0F8C002DB
:10546000FCF7E8FEBDE81040FFF724BE0A780270A2
:105470004A7842708A78CB7802EB032242800A791C
:105480004B7902EB032282808A79C97902EB0121F0
:10549000C18070470246002011B1C2F8B4127047B3
:1054A0000220704710B5D0F8B42202241AB1126855
:1054B000904700B90024204610BD000070B50E468C
:1054C0001E4D897804462970012931D894F89C0230
:1054D00002280BD003280FD031462046FFF7A0FC4E
:1054E00029782046BDE87040FFF783BCD9B103207E
:1054F000616084F89C0209E071B16068884212D052
:10550000C1B22046FFF775FC297861602046FFF79D
:10551000C9FF02280CD006E0022084F89C02204635
:105520006160FFF766FC2046BDE87040FFF7AABC4B
:1055300031462046BDE87040FFF772BC30010020C4
:1055400010B5FFF778FF002010BD2DE9F0410A7873
:10555000002612F0600208D0202A01D0402A70D123
:10556000D0F8B422926890476DE04B780022012574
:105570000A2B66D2DFE803F0405D655765080565D4
:105580002C29FFF7FFFC5EE004468888D8B9C8885C
:10559000C8B94888802816D200F07F0794F89C028A
:1055A000032810D084F89E7239462046FFF704FF86
:1055B0002046FFF767FC1FB1022084F89C0242E0FE
:1055C00084F89C523FE020463BE0FFF777FF3AE04B
:1055D000CB88012B35D190F89C32012B04D0022BC3
:1055E00002D0032B2DD104E08260012200F10801DA
:1055F00016E00122011D13E090F89C22012A03D03D
:10560000022A01D0032A1CD1CA88022A19D1C560F6
:10561000D0F8A41209B10321C160022200F10C01EB
:10562000FFF723FC0FE0498801290CD1C0F8A452F0
:1056300011E090F89C32012B08D0022B06D0032BEE
:1056400004D0FFF7EDFB3046BDE8F0814988012921
:10565000F9D1C0F8A422FFF715FCF4E72DE9F041D9
:105660000A46044610780027097910F060030AD032
:10567000202B01D0402B50D1D4F8B40211468368BE
:10568000204698478FE0C0F34110012806D050789B
:10569000D0B301282AD003283FD107E0D4F8B402C0
:1056A000114683682046BDE8F041184794F89C02F3
:1056B000022802D0032872D10AE071B380296ED08B
:1056C0002046FFF7AFFE80212046FFF7ABFE6AE0E1
:1056D000508838B931B1802904D0D08810B920461B
:1056E000FFF7A0FE2046FFF7CDFB5CE094F89C029C
:1056F0000228E2D0032852D1508898BB4806F1D046
:105700002046FFF7F8FCEDE7FFE794F89C0200263F
:10571000022803D0032842D112E040E009B18029D9
:105720003DD1080601F07F0000EB800004EB800112
:1057300001D5143101E001F5AA7102220E602AE0C0
:10574000080601F00F0000EB800004EB80000AD592
:10575000806920B301F07F0000EB800004EB80053E
:1057600014350BE01FE0D0F85801C0B101F07F0004
:1057700000EB800004EB800505F5AA7541B1802996
:1057800006D02046FFF7B2FD10B10120286000E0EE
:105790002E60022229462046FFF767FB03E01146F0
:1057A0002046FFF73DFB3846BDE8F08170B5054661
:1057B00008780C4610F0600003D0202801D0402863
:1057C00016D195F89C02012803D0022801D00328A5
:1057D0000ED1207901280BD8D5F8B402826828466A
:1057E0009047E188014306D12846FFF74BFB02E0D2
:1057F0002846FFF715FB002070BD70470048704732
:10580000282E00202DE9F0470C78002630F82430AF
:1058100048F68F121340CA78002A7DD0012A7CD026
:10582000022A02D0032A7FD0012648F280021343C5
:1058300020F824300D7830F8254048F68F731C404E
:105840002C43144320F825400D7B48F2C00C48F649
:10585000BF744CF280074BF68F79EDB391F800805E
:10586000C24630F8285048F280181D4045EA080525
:1058700020F82A50B0F8505091F80080054405EB0C
:105880000815B1F8088028F00108A5F80084B0F8E0
:10589000505091F80080054405EB0815B1F80A80D6
:1058A00028F00108A5F808844D78002D0D7830F80F
:1058B00025804FEA48487DD0B8F1000F07DA30F86C
:1058C000258008EA030848EA070820F825800F78B1
:1058D00030F827506D0600E02CE006D530F8275050
:1058E0001D4045EA0C0520F82750CB780D78012B98
:1058F00030F8253003EA040301D083F0200313437A
:1059000020F825300B7830F8231001EA0901114303
:1059100020F82310304602E003E008E004E0BDE890
:10592000F08743F4007380E743F4C0637DE743F4FA
:1059300080637AE74D782DB3B0F850500F78054466
:1059400005EB0715CF8827F00107A5F800740F783D
:1059500030F827506D0606D530F827501D4045EA2F
:105960000C0520F82750CB78012B06D00B7830F8A7
:105970002310214081F02001C9E70B7830F8231073
:105980002140C4E7B0F850400D78044404EB0514FE
:10599000CD8825F00105A4F80854B0F850400D78E2
:1059A000044404EB05140D6904F20C4475B13E2D5A
:1059B00014D800E030E04FEA550CED0701D00CF1AF
:1059C000010C4FF6FF7505EA8C2511E0258825F4BA
:1059D000F8452580258845F4004509E04FEA551C27
:1059E000ED0601D1ACF1010C4FF4004545EA8C25E0
:1059F00025800D7830F82540640405D530F8254021
:105A00001C403C4320F825400B7830F8231001EA75
:105A1000090181F440517AE7B8F1000F07DA30F854
:105A2000258008EA030848EA070820F825800F784F
:105A300030F827506D0606D530F827501D4045EA4E
:105A40000C0520F827500D7830F8253003EA0903BB
:105A500083F44053134320F825308EE7002070472D
:105A60002DE9F04391F80C804F780A7848F6BF7C16
:105A70004BF68F7948F2800348F2C0054CF280065D
:105A800048F68F74B8F1000F28D0002F30F822703C
:105A90004FEA474748D0002F05DA30F822702740F8
:105AA000374320F822700A7830F822707F0605D537
:105AB00030F8227027402F4320F822700D7830F8FC
:105AC00025202240324320F825200C7830F824206D
:105AD00002EA0C021A4320F824201AE07FB130F8C1
